{
  "_format": "hh-sol-artifact-1",
  "contractName": "Notes",
  "sourceName": "contracts/Notes.sol",
  "abi": [
    {
      "inputs": [],
      "stateMutability": "nonpayable",
      "type": "constructor"
    },
    {
      "inputs": [],
      "name": "getNotes",
      "outputs": [
        {
          "components": [
            {
              "internalType": "string",
              "name": "name",
              "type": "string"
            },
            {
              "internalType": "string",
              "name": "note",
              "type": "string"
            },
            {
              "internalType": "uint256",
              "name": "timestamp",
              "type": "uint256"
            },
            {
              "internalType": "address",
              "name": "from",
              "type": "address"
            }
          ],
          "internalType": "struct Notes.Note[]",
          "name": "",
          "type": "tuple[]"
        }
      ],
      "stateMutability": "view",
      "type": "function"
    },
    {
      "inputs": [
        {
          "internalType": "string",
          "name": "name",
          "type": "string"
        },
        {
          "internalType": "string",
          "name": "note",
          "type": "string"
        }
      ],
      "name": "leaveNote",
      "outputs": [],
      "stateMutability": "payable",
      "type": "function"
    }
  ],
  "bytecode": "0x608060405234801561001057600080fd5b50336000806101000a81548173ffffffffffffffffffffffffffffffffffffffff021916908373ffffffffffffffffffffffffffffffffffffffff160217905550610b59806100606000396000f3fe6080604052600436106100295760003560e01c8063b4af200d1461002e578063ca46244f14610059575b600080fd5b34801561003a57600080fd5b50610043610075565b6040516100509190610687565b60405180910390f35b610073600480360381019061006e9190610718565b610258565b005b60606001805480602002602001604051908101604052809291908181526020016000905b8282101561024f57838290600052602060002090600402016040518060800160405290816000820180546100cc906107c8565b80601f01602080910402602001604051908101604052809291908181526020018280546100f8906107c8565b80156101455780601f1061011a57610100808354040283529160200191610145565b820191906000526020600020905b81548152906001019060200180831161012857829003601f168201915b5050505050815260200160018201805461015e906107c8565b80601f016020809104026020016040519081016040528092919081815260200182805461018a906107c8565b80156101d75780601f106101ac576101008083540402835291602001916101d7565b820191906000526020600020905b8154815290600101906020018083116101ba57829003601f168201915b50505050508152602001600282015481526020016003820160009054906101000a900473ffffffffffffffffffffffffffffffffffffffff1673ffffffffffffffffffffffffffffffffffffffff1673ffffffffffffffffffffffffffffffffffffffff168152505081526020019060010190610099565b50505050905090565b6000341161029b576040517f08c379a000000000000000000000000000000000000000000000000000000000815260040161029290610856565b60405180910390fd5b60008054906101000a900473ffffffffffffffffffffffffffffffffffffffff1673ffffffffffffffffffffffffffffffffffffffff166108fc349081150290604051600060405180830381858888f19350505050158015610301573d6000803e3d6000fd5b506001604051806080016040528086868080601f016020809104026020016040519081016040528093929190818152602001838380828437600081840152601f19601f82011690508083019250505050505050815260200184848080601f016020809104026020016040519081016040528093929190818152602001838380828437600081840152601f19601f8201169050808301925050505050505081526020014281526020013373ffffffffffffffffffffffffffffffffffffffff16815250908060018154018082558091505060019003906000526020600020906004020160009091909190915060008201518160000190816104019190610a51565b5060208201518160010190816104179190610a51565b506040820151816002015560608201518160030160006101000a81548173ffffffffffffffffffffffffffffffffffffffff021916908373ffffffffffffffffffffffffffffffffffffffff160217905550505050505050565b600081519050919050565b600082825260208201905092915050565b6000819050602082019050919050565b600081519050919050565b600082825260208201905092915050565b60005b838110156104d75780820151818401526020810190506104bc565b60008484015250505050565b6000601f19601f8301169050919050565b60006104ff8261049d565b61050981856104a8565b93506105198185602086016104b9565b610522816104e3565b840191505092915050565b6000819050919050565b6105408161052d565b82525050565b600073ffffffffffffffffffffffffffffffffffffffff82169050919050565b600061057182610546565b9050919050565b61058181610566565b82525050565b600060808301600083015184820360008601526105a482826104f4565b915050602083015184820360208601526105be82826104f4565b91505060408301516105d36040860182610537565b5060608301516105e66060860182610578565b508091505092915050565b60006105fd8383610587565b905092915050565b6000602082019050919050565b600061061d82610471565b610627818561047c565b9350836020820285016106398561048d565b8060005b85811015610675578484038952815161065685826105f1565b945061066183610605565b925060208a0199505060018101905061063d565b50829750879550505050505092915050565b600060208201905081810360008301526106a18184610612565b905092915050565b600080fd5b600080fd5b600080fd5b600080fd5b600080fd5b60008083601f8401126106d8576106d76106b3565b5b8235905067ffffffffffffffff8111156106f5576106f46106b8565b5b602083019150836001820283011115610711576107106106bd565b5b9250929050565b60008060008060408587031215610732576107316106a9565b5b600085013567ffffffffffffffff8111156107505761074f6106ae565b5b61075c878288016106c2565b9450945050602085013567ffffffffffffffff81111561077f5761077e6106ae565b5b61078b878288016106c2565b925092505092959194509250565b7f4e487b7100000000000000000000000000000000000000000000000000000000600052602260045260246000fd5b600060028204905060018216806107e057607f821691505b6020821081036107f3576107f2610799565b5b50919050565b600082825260208201905092915050565b7f506c656173652073656e64206574686572730000000000000000000000000000600082015250565b60006108406012836107f9565b915061084b8261080a565b602082019050919050565b6000602082019050818103600083015261086f81610833565b9050919050565b7f4e487b7100000000000000000000000000000000000000000000000000000000600052604160045260246000fd5b60008190508160005260206000209050919050565b60006020601f8301049050919050565b600082821b905092915050565b6000600883026109077fffffffffffffffffffffffffffffffffffffffffffffffffffffffffffffffff826108ca565b61091186836108ca565b95508019841693508086168417925050509392505050565b6000819050919050565b600061094e6109496109448461052d565b610929565b61052d565b9050919050565b6000819050919050565b61096883610933565b61097c61097482610955565b8484546108d7565b825550505050565b600090565b610991610984565b61099c81848461095f565b505050565b5b818110156109c0576109b5600082610989565b6001810190506109a2565b5050565b601f821115610a05576109d6816108a5565b6109df846108ba565b810160208510156109ee578190505b610a026109fa856108ba565b8301826109a1565b50505b505050565b600082821c905092915050565b6000610a2860001984600802610a0a565b1980831691505092915050565b6000610a418383610a17565b9150826002028217905092915050565b610a5a8261049d565b67ffffffffffffffff811115610a7357610a72610876565b5b610a7d82546107c8565b610a888282856109c4565b600060209050601f831160018114610abb5760008415610aa9578287015190505b610ab38582610a35565b865550610b1b565b601f198416610ac9866108a5565b60005b82811015610af157848901518255600182019150602085019450602081019050610acc565b86831015610b0e5784890151610b0a601f891682610a17565b8355505b6001600288020188555050505b50505050505056fea2646970667358221220326fd1865e6d9f2da59213ca145cc99e4e567c157bcfec7d2dfee4ad3dace87164736f6c63430008130033",
  "linkReferences": {},
  "deployedLinkReferences": {}
}